:100000000C942A000C9447000C9447000C94470071
:100010000C9447000C9447000C9447000C94470044
:100020000C9447000C9447000C9447000C94470034
:100030000C9447000C9449000C9472000C944700F7
:100040000C9447000C9447000C9447000C94470014
:100050000C94470011241FBECFE5D8E0DEBFCDBF12
:1000600010E0A0E6B0E0E8EEF3E002C005900D92EB
:10007000AA37B107D9F711E0AAE7B0E001C01D9295
:10008000AF39B107E1F70E9426010C94F2010C94FC
:1000900000001F920F920FB60F9211242F938F938F
:1000A0009F93EF93FF939BB12CB1E0919C01EF5F85
:1000B00080919D01E81711F482E008C0892F8871B2
:1000C000E0939C01F0E0E656FF4F208380939E0171
:1000D000FF91EF919F918F912F910F900FBE0F90F5
:1000E0001F9018951F920F920FB60F9211248F93A5
:1000F0009F93EF93FF9390919A0180919B019817A2
:1001000061F0E0919B01EF5FEF71E0939B01F0E004
:10011000E658FF4F80818CB901C05598FF91EF914F
:100120009F918F910F900FBE0F901F901895109276
:100130009C0110929D0108959C0110929A011092C9
:100140009B0110929C0110929D0197FF03C082E0D9
:100150008BB93F7730BD29B988E98AB986E880BD77
:10016000089590919C0180919D01981719F420E0C9
:1001700031E011C0E0919D01EF5FE0939D01F0E05F
:10018000E656FF4F308120919E01922F80E0AC0116
:10019000430F511D9A01C90108955D9BFECF8CB993
:1001A00008955D9BFECF8CB90895FC0104C05D9B52
:1001B000FECF31968CB980818823C9F7089503C09A
:1001C0005D9BFECF2CB9FC01019624912223C1F73F
:1001D0000895949A959A929A9398979A96980895D2
:1001E000949A959A9298939A9798969A0895949A31
:1001F000959A9298939A979A96980895949A959A20
:10020000929A93989798969A089594989598929818
:1002100093989798969808958A9A8B9A8C9A8D9A23
:100220008E9A8F9A089596B1976196B987B93E9A3A
:10023000379A369A349BFECF349A24B130E045B1D8
:10024000942F80E0282B392BC90108954F925F929B
:100250006F927F928F929F92AF92BF92CF92DF92D6
:10026000EF92FF920F931F93DF93CF93CDB7DEB73B
:100270006E970FB6F894DEBF0FBECDBF8FE084BB84
:100280008FE590E00E949C00789480E690E00E94C8
:10029000D5000E940C01A49AAC9A3E010894611CFE
:1002A000711C2BE0822E912C8C0E9D1E95E1A92EA7
:1002B000B12CAC0EBD1E80E7482E81E0582E85E0A3
:1002C00090E00E9413018C0186E090E00E941301EF
:1002D0007C0187E090E00E9413016C01C801B3012A
:1002E0004AE050E00E94AD018CE690E00E94D5000B
:1002F000C3010E94D5008FE690E00E94D500C7019F
:10030000B4014AE050E00E94AD0181E790E00E9414
:10031000D500C4010E94D5008FE690E00E94D50070
:10032000C601B5014AE050E00E94AD0184E790E0CB
:100330000E94D500C5010E94D50087E790E00E9489
:10034000D50087E790E00E94D50080EA9FE0F201A7
:100350003197F1F70197D9F7B2CFFB019F01E894EC
:100360004230C4F04532B4F44A3029F497FB1EF40D
:10037000909581959F4F642F77270E94DE01805DC5
:100380008A330CF0895D8193CB010097A1F716F4B5
:100390005DE251931082C9010C94CE01DC01FC0195
:1003A000672F71917723E1F7329704C07C916D93A9
:1003B00070836291AE17BF07C8F30895AA1BBB1BD9
:1003C00051E107C0AA1FBB1FA617B70710F0A61B55
:1003D000B70B881F991F5A95A9F780959095BC0176
:0803E000CD010895F894FFCF50
:1003E800696E697469616C697A656400583D0009D1
:0A03F80000593D007A3D000A0D0097
:00000001FF
